S012000041544D4547415F4144432E737265633C
S11300000C942A000C943C000C943C000C943C008E
S11300100C943C000C943C000C943C000C943C006C
S11300200C943C000C943C000C943C000C943C005C
S11300300C943C000C943C000C943C000C943C004C
S11300400C943C000C943C000C947D000C943C00FB
S11300500C943C0011241FBECFE5D8E0DEBFCDBF19
S113006020E0A0E6B0E001C01D92A037B207E1F79E
S11300700E9460000C9499000C940000FC0180B76D
S1130080877F80BF90B780818870892B80BF87B1BC
S1130090877087B997B180818770892B87B98281EE
S11300A0883029F488B1886088B97894089588B133
S11300B0877F88B9089588B185FB882780F90895DA
S11300C0E0E6F0E01282138281E08183108280E412
S11300D08483E9E6F0E088E08283108280E2818311
S11300E0CF010E943E008FEF81BB0E945B008823FA
S11300F0E1F382B3809582BBF8CF1F920F920FB6C3
S11301000F9211242F938F939F9382B3809582BB78
S11301102FEF81EE94E0215080409040E1F700C041
S113012000009F918F912F910F900FBE0F901F9001
S10901301895F894FFCFBE
S9030000FC
