S012000041544D4547415F4144432E737265633C
S11300000C942A000C943C000C943C000C943C008E
S11300100C943C000C943C000C943C000C943C006C
S11300200C943C000C943C000C943C000C943C005C
S11300300C943C000C943C000C943C000C943C004C
S11300400C943C000C943C000C943C000C943C003C
S11300500C943C0011241FBECFE5D8E0DEBFCDBF19
S113006020E0A0E6B0E001C01D92AC36B207E1F793
S11300700E94EE000C94AD020C94000086B18064E2
S113008086B90895FC0180B78F7180BF90B78081D5
S1130090892B80BF16B893818181892B806886B9AA
S11300A017B894818281892B87B98381882309F0C9
S11300B0789408951F93CF93DF93EC01162FE0E615
S11300C0F0E0118281E001C0880F6A95EAF780832D
S11300D01282BF0189E390E00E94CD0087B1807E47
S11300E087B967B1612B67B90E943E00349BFECF8C
S11300F086B1806186B98A81882369F064B185B14B
S11301006295669566956370682B70E080E090E078
S11301100E94B4010CC084B165B170E0762F6627EB
S1130120682B072E000C880B990B0E94B4012C81BC
S11301302034B9F420E030E040E85FE30E94170186
S113014020E030E040EA50E40E94400220E030E049
S113015040E85AE30E9440026D837E838F83988730
S113016018C0203CB1F420E030E040E85FE30E9496
S113017017012AE037ED43E250E40E94400220E0F8
S113018030E040E85AE30E9440026D837E838F830F
S11301909887DF91CF911F910895DC01FB01818144
S11301A0813099F4808111969C911197892B119635
S11301B08C9311978281813081F4808112969C9175
S11301C01297892B12968C9308959081909511968D
S11301D08C911197982311969C930895E3E6F0E08F
S11301E01282138281E08183108280E48483CF01B0
S11301F00E9442008FEF81BB60E083E690E00E94A2
S11302005A00609168007091690080916A00909131
S11302106B000E94830162BB2FEF89E698E12150B5
S113022080409040E1F700C00000E6CF5058BB2763
S1130230AA270E942E010C9406020E94F80138F0AD
S11302400E94FF0120F039F49F3F19F426F40C9426
S1130250F5010EF4E095E7FB0C94EF01E92F0E9401
S1130260170258F3BA17620773078407950720F03B
S113027079F4A6F50C9439020EF4E0950B2EBA2FFE
S1130280A02D0B01B90190010C01CA01A001112498
S1130290FF27591B99F0593F50F4503E68F11A1644
S11302A0F040A22F232F342F4427585FF3CF4695D5
S11302B037952795A795F0405395C9F77EF41F16F7
S11302C0BA0B620B730B840BBAF09150A1F0FF0FC1
S11302D0BB1F661F771F881FC2F70EC0BA0F621FAD
S11302E0731F841F48F4879577956795B795F7959D
S11302F09E3F08F0B0CF9395880F08F09927EE0F32
S11303009795879508950E941F0288F09F5798F04B
S1130310B92F9927B751B0F0E1F0660F771F881F06
S1130320991F1AF0BA95C9F714C0B13091F00E9420
S11303303902B1E008950C943902672F782F882789
S1130340B85F39F0B93FCCF3869577956795B39547
S1130350D9F73EF490958095709561957F4F8F4FB6
S11303609F4F0895E89409C097FB3EF490958095BB
S1130370709561957F4F8F4F9F4F9923A9F0F92F67
S113038096E9BB279395F695879577956795B795E5
S1130390F111F8CFFAF4BB0F11F460FF1BC06F5FCB
S11303A07F4F8F4F9F4F16C0882311F096E911C0DD
S11303B0772321F09EE8872F762F05C0662371F0FE
S11303C096E8862F70E060E02AF09A95660F771F12
S11303D0881FDAF7880F9695879597F9089597F906
S11303E09F6780E870E060E008959FEF80EC0895D7
S11303F000240A9416161706180609060895002400
S11304000A9412161306140605060895092E039479
S1130410000C11F4882352F0BB0F40F4BF2B11F4ED
S113042060FF04C06F5F7F4F8F4F9F4F089557FD4C
S11304309058440F551F59F05F3F71F04795880F4E
S113044097FB991F61F09F3F79F0879508951216E5
S113045013061406551FF2CF4695F1DF08C0161691
S113046017061806991FF1CF869571056105089442
S11304700895E894BB2766277727CB0197F9089559
S11304800E9453020C9406020E94F80138F00E9464
S1130490FF0120F0952311F00C94EF010C94F50169
S11304A011240C943A020E94170270F3959FC1F331
S11304B0950F50E0551F629FF001729FBB27F00D0E
S11304C0B11D639FAA27F00DB11DAA1F649F662763
S11304D0B00DA11D661F829F2227B00DA11D621FB2
S11304E0739FB00DA11D621F839FA00D611D221F6C
S11304F0749F3327A00D611D231F849F600D211D50
S1130500822F762F6A2F11249F5750409AF0F1F0D2
S113051088234AF0EE0FFF1FBB1F661F771F881F3B
S113052091505040A9F79E3F510580F00C94EF0183
S11305300C943A025F3FE4F3983ED4F386957795A2
S11305406795B795F795E7959F5FC1F7FE2B880FE1
S1110550911D9695879597F90895F894FFCF1D
S9030000FC
